:107E000001C0D0C0112484B7882379F0982F9A70CC
:107E1000923049F081FF02C097EF94BF282E80E096
:107E2000ACD0EEC004C08FE001C080E0A6D082E0FC
:107E30008093C00088E18093C10086E08093C200F7
:107E400089E18093C40093E0E92EDD24D39425E0FA
:107E5000C22E31E1B32E85D0813461F482D0182F47
:107E600092D01238E9F0113811F488E001C083E0B3
:107E700071D06DC0823411F484E103C0853419F4EB
:107E800085E089D064C0853539F46BD0C82F69D0BE
:107E9000D82FCC0FDD1F5AC0863521F484E07BD06B
:107EA00080E0E6CF843609F02DC05BD05AD0F82EA2
:107EB00058D0A82E00E011E054D0F80181938F0132
:107EC000FE12FACF60D0F5E4AF1201C0FFCFFE0181
:107ED000E7BEE89507B600FCFDCFA0E0B1E0FE01EB
:107EE0008D919D910C01D7BEE89511243296FA121E
:107EF000F7CFFE01C7BEE89507B600FCFDCFB7BEC1
:107F0000E89525C0843771F42CD02BD0F82E29D0D9
:107F10003AD08E01F80185918F011CD0FA94F110AE
:107F2000F9CF15C0853739F42ED08EE113D085E90D
:107F300011D08FE09DCF813539F480E01ED023D061
:107F400080E108D05DC003C08FE017D01CD080E175
:107F500001D081CF9091C00095FFFCCF8093C600E7
:107F600008958091C00087FFFCCF8091C00084FD00
:107F700001C0A8958091C6000895E0E6F0E098E180
:107F8000908380830895EDDF803219F088E0F5DF7B
:107F9000FFCF84E1DFCFCF93C82FE3DFC150E9F7F4
:107FA000CF91F1CFFC010A0167BFE895112407B614
:107FB00000FCFDCF667029F0452B19F481E187BFE5
:047FC000E8950895A3
:027FFE00000879
:0400000300007E007B
:00000001FF
