:107E000001C0CBC0112484B7882361F0982F9A70E9
:107E1000923041F081FF02C097EF94BF282E80E09E
:107E2000A7D0EEC082E08093C00088E18093C100BB
:107E300086E08093C20089E18093C4008FE098D0EF
:107E400093E0E92EDD24D39425E0C22E31E1B32E58
:107E500083D0813461F480D0182F90D01238E9F0AB
:107E6000113811F488E001C083E06FD06BC0823418
:107E700011F484E103C0853419F485E087D062C031
:107E8000853539F469D0C82F67D0D82FCC0FDD1FC6
:107E900058C0863521F484E079D080E0E6CF84367E
:107EA00009F02DC059D058D0F82E56D0A82E00E099
:107EB00011E052D0F80181938F01FE12FACF5ED00B
:107EC000F5E4AF1201C0FFCFFE01E7BEE89507B6AB
:107ED00000FCFDCFA0E0B1E0FE018D919D910C0171
:107EE000D7BEE89511243296FA12F7CFFE01C7BE2D
:107EF000E89507B600FCFDCFB7BEE89523C08437F0
:107F000071F42AD029D0F82E27D038D08E01F8016C
:107F100085918F011AD0FA94F110F9CF13C08537EB
:107F200039F42CD08EE111D085E90FD08FE09DCFB0
:107F3000813539F480E01CD021D080E106D060C0CA
:107F400001C01CD080E101D083CF9091C00095FF8B
:107F5000FCCF8093C60008958091C00087FFFCCFBE
:107F60008091C00084FD01C0A8958091C60008954D
:107F7000E0E6F0E098E1908380830895EDDF8032C1
:107F800019F088E0F5DFFFCF84E1DFCFCF93C82F72
:107F9000E3DFC150E9F7CF91F1CFFC010A0167BFE0
:107FA000E895112407B600FCFDCF667029F0452B3B
:0A7FB00019F481E187BFE8950895F8
:027FFE00000879
:0400000300007E007B
:00000001FF
